:100000000C9435000C945D000C945D000C945D0024
:100010000C945D000C945D000C945D000C945D00EC
:100020000C945D000C945D000C945D000C945D00DC
:100030000C945D000C945D000C945D000C945D00CC
:100040000C948B030C945D000C94DA010C940C025C
:100050000C945D000C945D000C945D000C945D00AC
:100060000C945D000C945D003C0211241FBECFEF88
:10007000D8E0DEBFCDBF12E0A0E0B1E0E0E7F9E0FC
:1000800002C005900D92A833B107D9F722E0A8E38A
:10009000B2E001C01D92A03EB207E1F710E0CAE64F
:1000A000D0E004C02297FE010E94B204C836D107F6
:1000B000C9F70E947C030C94B6040C94000026E05F
:1000C00040E855E260E070E08AE392E00E94780147
:1000D00080E00C946D0480E00E94700490933902DB
:1000E0008093380261E071E08AE392E00E94BD02F1
:1000F000809138029091390297FD0396FC01F595A5
:10010000E795F595E795E95EFE4F608170E06E51E9
:1001100071094AE050E08AE392E00E9463036CE0D8
:1001200073E080E090E00C94F803FC01818D228D57
:1001300090E0805C9F4F821B91098F7399270895EF
:10014000FC01918D828D981731F0828DE80FF11DA1
:10015000858D90E008958FEF9FEF0895FC01918DBC
:10016000828D981761F0828DDF01A80FB11D5D9619
:100170008C91928D9F5F9F73928F90E008958FEF87
:100180009FEF089582E392E0892B49F080E090E0B0
:10019000892B29F00E94320281110C9400000895ED
:1001A000FC01848DDF01A80FB11DA35ABF4F2C9114
:1001B000848D90E001968F739927848FA689B789E3
:1001C0002C93A089B1898C9180648C93938D848DBC
:1001D000981306C00288F389E02D80818F7D80838B
:1001E0000895CF93DF93EC01888D8823C9F0EA89C5
:1001F000FB89808185FD05C0A889B9898C9186FD20
:100200000FC00FB607FCF5CF808185FFF2CFA8891C
:10021000B9898C9185FFEDCFCE010E94D000E7CF48
:10022000DF91CF910895CF92DF92FF920F931F93AA
:10023000CF93DF931F92CDB7DEB76C0181E0D6017B
:1002400058968C9358975B969C915B975C968C9193
:100250005C97981307C05096ED91FC91519780815F
:1002600085FD2EC0F601038D10E00F5F1F4F0F7349
:100270001127F02EF601848DF81211C00FB607FC7D
:10028000F9CFD6015096ED91FC915197808185FF71
:10029000F1CFC60169830E94D0006981EBCF838DC5
:1002A000E80FF11DE35AFF4F6083D6015B960C9374
:1002B0005B975296ED91FC915397808180620CC0C0
:1002C000D6015696ED91FC91579760835096ED912B
:1002D000FC91519780818064808381E090E00F9051
:1002E000DF91CF911F910F91FF90DF90CF900895F4
:1002F000BF92CF92DF92EF92FF92CF93DF93EC0108
:100300006A017B01B22EE889F98982E08083411578
:1003100081EE580761057105A1F060E079E08DE399
:1003200090E0A70196010E948E04215031094109F5
:1003300051095695479537952795211580E138073E
:1003400098F0E889F989108260E874E88EE190E01D
:10035000A70196010E948E042150310941095109DB
:100360005695479537952795EC85FD853083EE8525
:10037000FF852083188EEC89FD89B082EA89FB898C
:10038000808180618083EA89FB89808188608083A5
:10039000EA89FB89808180688083EA89FB89808182
:1003A0008F7D8083DF91CF91FF90EF90DF90CF9092
:1003B000BF9008951F920F920FB60F9211242F93A2
:1003C0008F939F93EF93FF93E0914A02F0914B023A
:1003D0008081E0915002F091510282FD12C0908123
:1003E000809153028F5F8F7320915402821751F0D6
:1003F000E0915302F0E0E65CFD4F958F809353024D
:1004000001C08081FF91EF919F918F912F910F906B
:100410000FBE0F901F9018951F920F920FB60F925C
:1004200011242F933F934F935F936F937F938F93F9
:100430009F93AF93BF93EF93FF938AE392E00E9461
:10044000D000FF91EF91BF91AF919F918F917F91DC
:100450006F915F914F913F912F910F900FBE0F9031
:100460001F9018958AE392E00E94950021E0892B65
:1004700009F420E0822F089510923D0210923C0270
:1004800088EE93E0A0E0B0E080933E0290933F02BC
:10049000A0934002B09341028BE192E090933B0223
:1004A00080933A0285EC90E0909347028093460255
:1004B00084EC90E0909349028093480280EC90E0B5
:1004C00090934B0280934A0281EC90E090934D020E
:1004D00080934C0282EC90E090934F0280934E0206
:1004E00086EC90E090935102809350021092530258
:1004F0001092540210925502109256020895CF9213
:10050000DF92EF92FF920F931F93CF93DF937C01C3
:100510006A01EB0100E010E00C151D0571F0699116
:10052000D701ED91FC910190F081E02DC701099573
:10053000892B19F00F5F1F4FEFCFC801DF91CF91CB
:100540001F910F91FF90EF90DF90CF90089561156C
:10055000710581F0DB010D900020E9F7AD014150FC
:100560005109461B570BDC01ED91FC910280F38190
:10057000E02D099480E090E008950C94A702DC013E
:10058000ED91FC910190F081E02D099467E272E019
:100590000C94A7028F929F92AF92BF92DF92EF923C
:1005A000FF920F931F93CF93DF93CDB7DEB7A19741
:1005B0000FB6F894DEBF0FBECDBF7C01F42FD52E51
:1005C000CB0119A2223008F42AE08E010F5D1F4FE3
:1005D000822E912CA12CB12C6F2F7D2DA501940181
:1005E0000E948E04F22FD32ECA01015011096A30E5
:1005F00014F4E0E301C0E7E3E60FD801EC93232B0A
:10060000242B252B49F7B801C7010E94A702A19608
:100610000FB6F894DEBF0FBECDBFDF91CF911F9113
:100620000F91FF90EF90DF90BF90AF909F908F90D1
:100630000895CF92DF92EF92FF920F931F93CF9383
:10064000DF93EC016A017B012115310579F4E88122
:10065000F9810190F081E02D642FDF91CF911F91FE
:100660000F91FF90EF90DF90CF9009942A303105E1
:10067000E9F477FF1AC06DE20E94BF028C014427A3
:100680005527BA014C195D096E097F092AE0CE0190
:100690000E94CA02800F911FDF91CF911F910F918D
:1006A000FF90EF90DF90CF9008952AE0B701A60168
:1006B000CE01DF91CF911F910F91FF90EF90DF90CE
:1006C000CF900C94CA020F931F93CF93DF93EC014A
:1006D0009A01AB01662757FD6095762F0E9419039A
:1006E0008C01CE010E94C602800F911FDF91CF9135
:1006F0001F910F91089508950E9432040E947B0378
:100700000E945F00C2ECD0E00E946B002097E1F3F2
:100710000E94C200F9CF1F920F920FB60F921124C0
:100720002F933F938F939F93AF93BF938091D80262
:100730009091D902A091DA02B091DB023091D702F8
:1007400023E0230F2D3720F40196A11DB11D05C014
:1007500026E8230F0296A11DB11D2093D702809396
:10076000D8029093D902A093DA02B093DB02809171
:10077000DC029091DD02A091DE02B091DF020196D1
:10078000A11DB11D8093DC029093DD02A093DE02D7
:10079000B093DF02BF91AF919F918F913F912F91C5
:1007A0000F900FBE0F901F9018953FB7F89480914F
:1007B000DC029091DD02A091DE02B091DF0226B54D
:1007C000A89B05C02F3F19F00196A11DB11D3FBF89
:1007D0006627782F892F9A2F620F711D811D911D19
:1007E00042E0660F771F881F991F4A95D1F7089539
:1007F0008F929F92AF92BF92CF92DF92EF92FF9231
:100800006B017C010E94D5034B015C01C114D10432
:10081000E104F104F1F00E948D040E94D5036819EF
:1008200079098A099B09683E73408105910570F337
:1008300021E0C21AD108E108F10888EE880E83E0B1
:10084000981EA11CB11CC114D104E104F10429F7C4
:10085000DDCFFF90EF90DF90CF90BF90AF909F9053
:100860008F900895789484B5826084BD84B581604A
:1008700084BD85B5826085BD85B5816085BDEEE6A8
:10088000F0E0808181608083E1E8F0E01082808187
:1008900082608083808181608083E0E8F0E08081F5
:1008A00081608083E1EBF0E0808184608083E0EB15
:1008B000F0E0808181608083EAE7F0E080818460FD
:1008C0008083808182608083808181608083808159
:1008D000806880831092C10008958093000108957C
:1008E0008E3008F08E5087702091000190E4299F8F
:1008F00090011124822B80937C0080917A00806487
:1009000080937A0080917A0086FDFCCF80917800F8
:100910002091790090E0922B08950895A1E21A2E7B
:10092000AA1BBB1BFD010DC0AA1FBB1FEE1FFF1F93
:10093000A217B307E407F50720F0A21BB30BE40BE3
:10094000F50B661F771F881F991F1A9469F760952A
:100950007095809590959B01AC01BD01CF010895E4
:10096000EE0FFF1F0590F491E02D0994F894FFCF4E
:100970000109726573756C742066726F6D206C6FFF
:100980006F6B75703A20000000000000000000004E
:10099000000000B3AFACA9A6A3A19F9D9B9997951A
:1009A0009492908F8E8C8B8A8887868584838281AF
:1009B000807F7E7D7C7B7A7A7978777676757473A2
:1009C00073727171706F6F6E6D6D6C6C6B6A6A694A
:1009D00069686867676665656464636362626161CC
:1009E00060605F5F5E5E5E5D5D5C5C5B5B5A5A593A
:1009F0005959585857575656565555545454535399
:100A0000525252515150504F4F4F4E4E4E4D4D4CF1
:100A10004C4C4B4B4A4A4A49494848484747464646
:100A2000464545444444434342424241414040409C
:100A30003F3F3E3E3E3D3D3C3C3C3B3B3A3A3939F4
:100A40003938383737363635353434343333323253
:100A5000313130302F2F2E2D2D2C2C2B2B2A2929C4
:100A6000282827262625242423222121201F1E1D55
:100A70001C1C1B1A19181615141311100000000065
:100A8000000000000000000000000013017F02953C
:100A900000AE00A000F1000D0A006E616E00696EEC
:080AA00066006F7666002E006F
:00000001FF
